:100000000C942A000C943C000C943C000C943C0092
:100010000C94E2000C943C000C943C000C94020103
:100020000C943C000C943C000C94A9000C943C00F3
:100030000C943C000C943C000C943C000C943C0050
:100040000C943C000C943C000C943C000C943C0040
:100050000C943C0011241FBECFE5D8E0DEBFCDBF1D
:1000600020E0A0E6B0E001C01D92A636B207E1F79D
:100070000E9448010C9459010C9400008091630087
:100080008130B1F018F0823049F1089589E088BBE1
:1000900084E082BB82E285BB80EA9FE090936500AA
:1000A0008093640081E0809363008FE085BD0895B4
:1000B00082E188BB82E082BB92E295BB20ED37E013
:1000C0003093650020936400809363001092620077
:1000D00015BC8BB38E7F8BBB1EBC089584E288BB9E
:1000E00080916200813099F018F0823009F1089512
:1000F00081E082BB99E095BB20EA3FE03093650048
:1001000020936400809362008DE08EBD089582E0AC
:1001100082BB99E095BB20ED37E0309365002093DA
:100120006400809362001EBC8BB38D7F8BBB0895EF
:1001300084E082BB82E285BB80EA9FE09093650009
:100140008093640010926200109263008FE085BD7E
:1001500008951F920F920FB60F9211242F933F9381
:100160004F935F936F937F938F939F93AF93BF93BF
:10017000EF93FF938091640090916500892B89F043
:100180008091640090916500019790936500809341
:1001900064008091640090916500892B11F40E94A5
:1001A0003E00FF91EF91BF91AF919F918F917F9111
:1001B0006F915F914F913F912F910F900FBE0F90D4
:1001C0001F9018951F920F920FB60F9211248F93C4
:1001D0009F939091610081E0911180E08093610094
:1001E00080916100882321F08BB381608BBB03C0B9
:1001F0008BB38E7F8BBB9F918F910F900FBE0F9013
:100200001F9018951F920F920FB60F9211248F9383
:100210009F9380916300823099F49091600081E017
:10022000911180E08093600080916000882321F02C
:100230008BB382608BBB07C08BB38D7F8BBB03C03E
:100240008BB38D7F8BBB9F918F910F900FBE0F90C3
:100250001F9018958BE083BF12BE8DE78CBF89B7C6
:10026000826089BF08958FE085BD14BC8AEF83BD8D
:1002700089B7806889BF08958DE08EBD1DBC1CBC08
:100280008AEF90E09BBD8ABD89B7806189BF0895E0
:100290008FEF87BB81BB84BB8ABB0E942A010E946F
:1002A00033010E943C010E943E008FB780688FBFDF
:0602B000FFCFF894FFCF20
:00000001FF
